:020000040800F2
:1000000000080020ED170008F51700083504000867
:10001000F9170008FB170008FD1700080000000092
:10002000000000000000000000000000FF170008B2
:10003000011800080000000003180008D10400089F
:100040000718000807180008071800080718000814
:100050000718000807180008071800080718000804
:1000600007180008071800080718000807180008F4
:1000700007180008071800080718000807180008E4
:1000800007180008071800080718000807180008D4
:1000900007180008071800080718000807180008C4
:1000A00007180008071800080718000807180008B4
:1000B00007180008071800080718000807180008A4
:1000C0000718000807180008071800080718000894
:1000D000071800086106000807180008071800083C
:1000E0000718000807180008071800080718000874
:1000F0000718000807180008071800080718000864
:100100000718000807180008071800080718000853
:100110000718000807180008071800080718000843
:100120000718000807180008071800080718000833
:1001300000F002F800F043F80AA090E8000C8244B6
:100140008344AAF10107DA4501D100F038F8AFF293
:10015000090EBAE80F0013F0010F18BFFB1A43F0A5
:1001600001031847BC2D0000DC2D0000103A24BF0D
:1001700078C878C1FAD8520724BF30C830C144BF0C
:1001800004680C607047000000230024002500264E
:10019000103A28BF78C1FBD8520728BF30C148BFEA
:1001A0000B6070471FB502F0B9FB0400002000216E
:1001B00002F02AFD401C60601FBD10B510BD02F0AA
:1001C000EFFC1146FFF7EEFF00F059F902F00DFDCC
:1001D00003B4FFF7F2FF03BC02F00EFD10B50446B6
:1001E00074B1012C10D0092C02D00A2C10D103E0DC
:1001F000544801F022FE0BE0534801F01EFE07E0D8
:1002000052A000F01CFB03E053A000F018FB00BF5D
:1002100000BF10BD10B5044644B1012C0AD0082C13
:100220000CD1AFF2470001F008FE07E04DA000F04E
:1002300006FB03E04FA000F002FB00BF00BF10BDB3
:1002400010B5044644B1012C0AD0072C0CD1AFF2F2
:100250003B0001F0F2FD07E049A000F0F0FA03E0F6
:100260004BA000F0ECFA00BF00BF10BD10B5044673
:100270006CB1012C0FD00C2C05D00D2C0FD148489F
:1002800001F0DBFD0BE0474801F0D7FD07E046A099
:1002900000F0D5FA03E049A000F0D1FA00BF00BF9A
:1002A00010BD10B5044644B1012C0AD0102C0CD15D
:1002B000AFF2470001F0C1FD07E044A000F0BFFA33
:1002C00003E046A000F0BBFA00BF00BF10BD10B5B0
:1002D000044644B1012C0AD00E2C0CD1AFF23D00E3
:1002E00001F0ABFD07E041A000F0A9FA03E044A053
:1002F00000F0A5FA00BF00BF10BD10B5044684B1E0
:10030000012C12D00B2C02D00F2C12D104E0AFF232
:10031000A30001F092FD0CE0AFF24D0001F08DFD65
:1003200007E03CA000F08BFA03E03EA000F087FA63
:1003300000BF00BF10BD70B504460D46204601F059
:10034000DBF870BD1502000841020008312D6F6E08
:100350003A656E7472790A00312D6F6E3A6578696C
:10036000740A0000312D7365743A656E7472790AEF
:1003700000000000312D7365743A657869740A00D5
:10038000312D6163746976653A656E7472790A001D
:10039000312D6163746976653A657869740A000085
:1003A000FB020008CF020008322D636F6E6E65639A
:1003B000743A656E7472790A00000000322D636F22
:1003C0006E6E6563743A657869740A00322D616CEB
:1003D00061726D3A656E7472790A0000322D616C3B
:1003E00061726D3A657869740A000000322D6469A3
:1003F00073636F6E6E6563743A656E7472790A002A
:10040000322D646973636F6E6E6563743A657869E3
:10041000740A0000322D6163746976653A656E7402
:1004200072790A00322D6163746976653A6578697C
:10043000740A000070B500251748016817A000F085
:100440003BFB1548001D016817A000F035FB124862
:100450000830016817A000F02FFB0F481430016826
:1004600017A000F029FB07E0681CC5B2002400E0DB
:10047000641C16488442FBD3052DF5DB70BD4FF498
:10048000407001F0F9FC01F0C1FA01F009FC00BF75
:1004900001F0A6FBFCE7000028ED00E043465352C4
:1004A0003A2538580D0A0000484653523A25385824
:1004B0000D0A0000444653523A2538580D0A0000F0
:1004C000414653523A2538580D0A0000FFFF1F00DD
:1004D0003E480068401C3D4908607047F0B585B053
:1004E0000446684601F033FE0098C008B0FBF4F5FE
:1004F0002946B1F1807F00D31DE021F07F40401EEE
:100500004FF0E022506150170F22002807DA13073E
:100510001F0E2F4B00F00F06361F9F5503E01307E9
:100520001E0E2C4B1E5400BF00204FF0E0229061A5
:100530000720106100BF6FF0040001F0EDFC2649B8
:100540000098B0FBF1F0C0F3C700244908700846DA
:10055000007800EB4001C1EBC0104FF6FF7101EADB
:10056000C0001F49088005B0F0BD30B503464FF00C
:10057000E0256C690022A96900BF4FF0E025A86959
:100580008842FAD0884202D20D1A2A4402E0651845
:100590002D1A2A4401469A42EFD900BF00BF30BD50
:1005A00010B5044634B10E4A128804FB02F1481E0D
:1005B000FFF7DBFF10BD10B5044634B1074A1278CF
:1005C00004FB02F1481EFFF7D0FF10BD8C00002095
:1005D00018ED00E000E400E040420F0000000020C1
:1005E000020000201B48806940F00500194988611D
:1005F0001948006820F00F00174908600846006895
:1006000040F00B00086014480830006840F4807027
:100610001149083108600F48406820F070600D49AA
:1006200048600846406840F0A06048607047014656
:100630004906084A926942F00102064B9A61074A4C
:10064000526822F0E062054B5A601A4652680A432B
:100650005A60704700100240040801400000014049
:1006600010B561480088C4B22046604909688847CF
:1006700010BD5F4991F8801039BB0D2812D10021BF
:100680005B4AB2F884205A4B99541946B1F8841049
:100690001A46A2F882100021A2F88410012182F8E3
:1006A000801012E00A2810D05149B1F88410504A45
:1006B0005054B2F88420511CCA1701EB5262D21177
:1006C000A1EBC2124A4BA3F88420704770474749F8
:1006D0000860704710B5464890F88000012808D19E
:1006E000434890F88210FFF726FE0020404981F829
:1006F000800010BD00BF3C49091F098801F040017E
:100700000029F8D0C0F30801374A1180704700BFB4
:100710003548001F008800F020000028F8D032483B
:10072000001F008820F020002F49091F0880081DA5
:100730000088C0B2704710B586B004462D48806965
:1007400044F2040108432B4988612B48006820F4D7
:100750007F60294908600846006840F40B60086023
:1007600025480830006840F4C0602349083108601B
:1007700002940020ADF80C00ADF80E00ADF81000AA
:10078000ADF814000C20ADF8120002A91648001FA5
:1007900001F0F5FD01211448001F01F07CFE01224B
:1007A00040F225511048001F01F081FE25208DF8F0
:1007B00004000D208DF8050000208DF806000120B2
:1007C0008DF8070001A801F05CFBAFF25910FFF7AC
:1007D0007EFFAFF2DF0009490860AFF2CD000849A3
:1007E000086006B010BD000004380140040000207D
:1007F000C000002000100240040801400800002052
:100800001000002010B504460A2C02D10D20FFF77D
:10081000F9FFFE48006848B1FC4800680470FB48D6
:100820000068401CF9490860204610BDF84800687F
:1008300018B12046F649096888472046F5E770B5A3
:100840000446254603E014F8010BFFF7DBFF207890
:100850000028F8D1601B70BD2DE9F04105460C461B
:100860002646EB480768056003E014F8010BFFF724
:10087000C9FF20780028F8D1E5480760A01BBDE833
:10088000F0812DE9F34F87B00546002600BF15F82B
:10089000014B04B90BE1252C04D02046FFF7B2FF31
:1008A000761CF4E74FF0000815F8014B302C04D10A
:1008B0004FF0010815F8014B05E02D2C03D14FF046
:1008C000020815F8014B4FF0000B07E00BEB8B0013
:1008D00004EB4000A0F1300B15F8014B302C01DB8C
:1008E000392CF3DD6C2C01D04C2C03D148F00408DA
:1008F00015F8014B04B9DAE02746612F02DBA7F1B6
:100900002000C7B24F2F46D006DC422F40D0432FE5
:1009100035D0442F49D141E0532F04D0552F3ED03C
:10092000582F42D13EE00898006800900898001DBA
:1009300008904FF0000A01E00AF1010A009810F84F
:100940000A000028F8D103E02020FFF75BFF761CA7
:1009500008F0020020B950460AF1010A5845F3D3C5
:100960000098FFF76CFF064403E02020FFF74AFFE2
:10097000761C50460AF1010A5845F6D387E70899D4
:1009800011F8042BD0B20891FFF73CFF761C7EE7EC
:10099000022006900EE0082006900BE000BF0A201F
:1009A000069007E01020069004E02046FFF72AFF9B
:1009B000761C6CE700BF08F0040028B108980068B6
:1009C0000899091D08910CE0442F05D1089800688A
:1009D0000899091D089104E0089800680899091D04
:1009E00008910590442F08D1059800F0004020B1EF
:1009F00005984042059048F008084FF0000900BFF4
:100A0000DDE90501B0FBF1F201FB1200C7B2DDE93F
:100A10000501B0FBF1F00590092F06DD782C01D11E
:100A2000272000E007203844C7B207F13000C2B2E7
:100A3000484609F1010901A90A54059810B1B9F114
:100A4000100FDDD308F0080028B12D22484609F127
:100A5000010901A90A54CA4608F0010008B1302072
:100A600000E02020074603E03846FFF7CBFE761C67
:100A700008F0020020B950460AF1010A5845F3D3A4
:100A800000BFA9F10101894601AA505CFFF7BAFE37
:100A9000761CB9F1000FF4D103E02020FFF7B2FE7D
:100AA000761C50460AF1010A5845F6D3EFE600BF1E
:100AB000304609B0BDE8F08F0FB438B505A80090F6
:100AC00000990498FFF7DDFE0446002000902046C0
:100AD00038BC5DF814FB0FB438B504464B480460CD
:100AE00006A8009000990598FFF7CBFE0546002068
:100AF000009046490968087044490860284638BC97
:100B00005DF814FB0FB4F8B504464148066804606C
:100B100008A8009000990798FFF7B3FE054600204B
:100B200000903B4806602846F8BC5DF814FB2DE9B0
:100B3000F05F07468B4615469A46594635A0FFF7A3
:100B4000BBFFBAF1010F06D0BAF1020F22D0BAF101
:100B5000040F35D129E03E46002404E0315D2FA08A
:100B6000FFF7AAFF641CAC42F8DB2020FFF74AFE27
:100B700000240CE0315D202904DB315D7E2901DC9D
:100B8000315D00E02E210846FFF73CFE641CAC42BC
:100B9000F0DB15E0B84600BF38F8021B21A0FFF7D4
:100BA0008BFF681E0500F7D10AE0B94600BF59F86F
:100BB000041B1EA0FFF780FF681E0500F7D100BFD1
:100BC00000BF0A20FFF71EFEBDE8F09F2DE9F041AF
:100BD00006460F4600250FE0082C05D125B16D1EF5
:100BE00014A0FFF72CFE07E0202C05DB781EA8429E
:100BF00002DD28466D1C34540F48006880470446C7
:100C00000D28E9D100207055012017E00C000020CC
:100C1000080000202530386C582000002025303294
:100C200058000000202530345800000020253038BE
:100C30004C5800000820080010000020BDE8F0819A
:100C40002DE9F04104460D4616463C48076804600D
:100C500031462846FFF7BAFF8046384807604046CD
:100C6000BDE8F08170B502460D46002600202860E0
:100C700000E0521C11782029FBD02D2903D1012638
:100C8000501C0246017830291DD1501C02460178C3
:100C9000622906D0782909D11023501C0246017818
:100CA00010E00223501C024601780BE0202901DCF1
:100CB000012070BD302901DB392901DD0020F8E772
:100CC000082300BF06E0302901DB392901DD0020BF
:100CD000EFE70A23002418E0612902DBA1F12000DC
:100CE000C1B2A1F13000C1B2112905DBC81FC1B2E8
:100CF000092901DC0020DCE7994201DB0020D8E76C
:100D000004FB0314501C024601782029E4DC06B1E0
:100D100064422C600120CCE700B587B0142102A802
:100D2000FFF754FF01A902A8FFF79CFF10B94FF08D
:100D3000FF300190019807B000BD000010000020B6
:100D40002DE9FF5F80468B4616464746012E05D0AB
:100D5000022E03D0042E01D0BDE8FF9F102090FB8F
:100D6000F6F50BEB0500401E90FBF5F001909BFBA8
:100D7000F5F005FB10B000900A20FFF743FD4FF09F
:100D800000095FE00198401E484502D1009800B17B
:100D9000009D414662A0FFF78FFE012E04D0022E77
:100DA0000ED0042E27D119E0BA46002405E01AF827
:100DB00004105DA0FFF780FE641CAC42F7DB1AE074
:100DC0000397002407E0039830F8021B039058A013
:100DD000FFF772FE641CAC42F5DB0CE002970024C6
:100DE00006E0029850F8241053A0FFF765FE641C3B
:100DF000AC42F6DB00BF00BF2020FFF703FD202040
:100E0000FFF700FDBA4600240FE01AF8041020296D
:100E100006DB1AF804107E2902DC1AF8041000E040
:100E20002E210846FFF7EEFC641C05FB06F0A042ED
:100E3000EBDC0A20FFF7E6FC05FB068805FB0677DE
:100E400009F10109019881459CDB00BF84E72DE988
:100E5000FF4F83B0804691461C4600270020029039
:100E60004546049E3EE0042C11D1D5F800A0D6F8EA
:100E700000B0DA450AD033465246294630A0CDF8B4
:100E800000B0FFF719FE0120029030E027E0022CAD
:100E900011D1B5F800A0B6F800B0DA450AD0334653
:100EA0005246294633A0CDF800B0FFF705FE0120D9
:100EB00002901CE013E0012C11D195F800A096F8E7
:100EC00000B0DA450AD033465246294638A0CDF85C
:100ED00000B0FFF7F1FD0120029008E000BF7F1C89
:100EE00025442644B9F10000A9F10109BBDC00BF8B
:100EF000012F01D13BA000E03BA00346042C01D10F
:100F00003AA004E0022C01D13AA000E03CA0024645
:100F100039463DA0FFF7D0FD029807B0BDE8F08F3D
:100F2000253038583A0000002025303258000000A3
:100F300020253034580000002025303858000000AB
:100F4000776F7264206174203078253038782028DB
:100F50003078253038782920213D20776F72642041
:100F60006174203078253038782028307825303862
:100F700078290A0068616C66776F7264206174205A
:100F8000307825303878202830782530347829207A
:100F9000213D2068616C66776F7264206174203037
:100FA00078253038782028307825303478290A00A0
:100FB0006279746520617420307825303878202873
:100FC0003078253032782920213D206279746520DF
:100FD00061742030782530387820283078253032F8
:100FE00078290A000000000073000000776F726427
:100FF0000000000068616C66776F7264000000009A
:101000006279746500000000546F74616C206F6633
:101010002025642025732573207765726520746808
:10102000652073616D650A0070B5054625B1012D17
:1010300017D0022D31D12CE0E1A0FFF73DFD0024B7
:1010400007E0EA4850F83410E9A0FFF735FD601CCE
:10105000C4B2E84800788442F3DBE7A0FFF72CFD38
:101060001BE0F1A0FFF728FD00240AE0DF4850F85C
:10107000342000EBC4004168F6A0FFF71DFD601CA2
:10108000C4B2DC4800788442F0DBE7A0FFF714FD2F
:1010900003E0F348FFF710FD00BF00BF70BD2DE96E
:1010A000F04194B00746884600244146384601F096
:1010B00071FB054608E04DF82450601C44B24146DF
:1010C000681C01F067FB0546002DF4D1022C20D1ED
:1010D0000098461C0099481CE2A101F06AFB58B137
:1010E0000099481C2A2101F04BFB18B1012014B0D3
:1010F000BDE8F0810020FAE706E03078202801D131
:10110000761C01E00120F2E70198B042F5D1002001
:10111000EDE7032C06D1D5A1009801F04AFB08B1F8
:10112000601FE4E7601E40B2E1E770B504460D467B
:101130000BE001F0E5FA00682178405C00F0010066
:1011400008B1641C01E0002070BDAC42F1D1012067
:10115000FAE72DE9F74FA0B015460026DDE920019A
:1011600001F018FB81460AE002A840F82690701CA6
:1011700046B209F10100219901F00CFB8146B9F159
:10118000000F01D01E2EEFDB1EB94FF0FF3028609C
:101190008BE1012E02D1F01E286086E102980078D2
:1011A000282876D1701E02A951F82000007829283D
:1011B000F7D100202860022E18D10298441C10E0BC
:1011C0002078202803D1641C0020286009E0012039
:1011D00028600299481C0022114601F099FA6860C3
:1011E00002E00398A042EBD100BF57E14FF00008A6
:1011F00001240BE002A850F824000078222803D133
:1012000008F1010000F0FF08601CC4B2B442F1DB39
:10121000B8F1000F20D1002406E0002002A951F807
:1012200024100870601CC4B2B442F6DB00240CE049
:1012300002A951F82410481C0022114601F068FA56
:10124000611C45F82100601CC4B2B442F0DB701E82
:10125000286023B0BDE8F08F404608EBD0714910FC
:10126000A8EB410119B16FF001002860F1E70127F7
:101270004FF0000A00240AE14FF0010B03E1BAF13C
:10128000000F07D0BAF1010F3DD0BAF1020F39D1EA
:101290004BE007E1ACB902A9601C51F820000078CE
:1012A000222804D1601CC4B24FF0020A2AE002A92D
:1012B000601C51F8200000782C2823D14FF0010A3F
:1012C00020E002A850F8240000782C281AD102A9A6
:1012D000601C51F8200000782C2805D0601C51F8C3
:1012E00020000078292802D14FF0010A0AE002A963
:1012F000601C51F820000078222803D1601CC4B281
:101300004FF0020ABEE002A951F82410481C002246
:10131000114601F0FDF945F82700781CC7B2601CA2
:10132000C4B24FF0000BDA46ACE002A850F824003B
:10133000401C45F82700781CC7B20020019098E0B7
:10134000601CC4B201E0601CC4B202A850F82400C2
:1013500000782228F7D1601CC4B2701EA04208DCBD
:10136000012001900021601E02AA52F820000170A5
:1013700083E002A850F8240000782C2878D102AA33
:1013800052F82410621E02AB53F82220501CFFF7C3
:10139000CCFE40B1012001900021601E02AA52F84B
:1013A0002000017069E0601CC4B201E0601CC4B29E
:1013B00002A850F82400007822285AD0F6E757E017
:1013C0002D2D2D2D2D2D2D2D2D2D2D2D2D206675D9
:1013D0006E6374696F6E206C697374202D2D2D2DD2
:1013E0002D2D2D2D2D2D2D2D2D2D0A0014000020FD
:1013F00025730A00740000202D2D2D2D2D2D2D2D4F
:101400002D2D2D2D2D2D2D2D2D2D2D2D2D2D2D2D0C
:101410002D2D2D2D2D2D2D2D2D2D2D2D2D2D2D2DFC
:101420002D2D2D0A000000002D2D2D2D2D2D2D2DC3
:101430002D2D2D2D2D2D2D2D2D2D2D2D2D2D2D2DDC
:101440002D2D2D2D2D2D2D2D2D2D2D2D2D2D2D2DCC
:101450002D2D0A003078253038783A2025730A007F
:10146000342C0008766F6964000000002E2E000006
:1014700000BF019800283FF463AF00BF4FF0000B9E
:10148000DA4600BF00BFBBF1000F7FF4F8AE701E5C
:10149000A0423FF7F1AE781E286000BF00200299FD
:1014A000087002E06FF00100286000BFD1E62DE96E
:1014B000F04107460D462821384601F061F90446FF
:1014C000641E00E0641E20782028FBD020780928C4
:1014D000F8D0264600E0641E2078202805D0207829
:1014E0002A2802D020780928F5D1641C301B401C22
:1014F00028702046BDE8F0812DE9F04F91B080467C
:1015000045464FF0000900E06D1C28782028FBD0EC
:101510000B2106A801F0D8F906AA93A12846FFF7E7
:1015200018FE0698801C28B991A0FFF7C5FA11B0E3
:10153000BDE8F08F0698401CC8B900240EE028468C
:1015400001F049F907468E4850F834103A462846CB
:1015500001F060F900B903E0601CC4B2032CEEDBBB
:1015600000BF032C38DB87A0FFF7A6FADFE70324D0
:1015700025E0834951F8340005A9FFF798FF834619
:10158000284601F028F92844471E00E07F1E3878DD
:101590002028FBD0781B401C00F0FF0A9DF81400A7
:1015A000824501DD504601E09DF8140002462946BF
:1015B000584601F02FF900B905E0601CC4B2764826
:1015C00000788442D5DB00BF73480078844203DB97
:1015D00072A0FFF771FAAAE70698401C78B1684933
:1015E00051F8340073A1FFF75AFD0646B01C50B104
:1015F0000698B04207D070A0FFF75EFA97E7204642
:10160000FFF712FD93E706980B2873D2DFE800F08E
:10161000060D151E27323F4E5F738800584901EBB7
:10162000C40148688047814695E0554A02EBC402F0
:1016300007985168884781468DE0514B03EBC403FE
:10164000DDE907015A689047814684E04C4F07EB7B
:10165000C40707A807C87B68984781467BE0DFF886
:1016600020C10CEBC40C07A80FC8DCF80470B84705
:10167000814670E00B980090DFF804C10CEBC40CBD
:1016800007A80FC8DCF80470B847814663E0DDE9BD
:101690000B01CDE90001DFF8E8C00CEBC40C07A892
:1016A0000FC8DCF80470B847814654E0DDE90C212E
:1016B0000B98CDE901210090DFF8C4C00CEBC40CFD
:1016C00007A80FC8DCF80470B847814643E0DDE99D
:1016D0000B13DDE90D02CDE90013CDE90202DFF8BD
:1016E000A0C00CEBC40C07A80FC8DCF80470B84706
:1016F000814630E02BE0DDE90C23DDE90E01CDE988
:101700000123CDE903010B980090DFF874C00CEBC6
:10171000C40C07A80FC8DCF80470B84781461AE06B
:10172000DDE90E3210990D98CDE903320591029052
:10173000DDE90B01CDE90001DFF844C00CEBC40C7E
:1017400007A80FC8DCF80470B847814603E01EA064
:10175000FFF7B2F900BF00BF4A4649461FA0FFF796
:10176000ABF900BFE3E60000282C292200000000AE
:101770006572723A666D74206572720A000000002C
:10178000140000206572723A73797374656D20637A
:101790006D64206572720A00740000206572723AEE
:1017A0006E6F7420796F752077616E746564206345
:1017B0006D640A00282C29006572723A70617261AA
:1017C0006D206572720A00006572723A7061726112
:1017D0006D73206E756D206572720A003D3078253C
:1017E0003038782C25643B0A000000000948804707
:1017F00009480047FEE7FEE7FEE7FEE7FEE7FEE7F3
:10180000FEE7FEE7FEE7FEE704480549054A064B0A
:10181000704700000B190008310100080002002089
:101820000008002000040020000400200CB5002067
:10183000019000906C48006840F480306A4908606C
:1018400000BF6948006800F4003000900198401C17
:101850000190009818B90198B0F5A06FF1D16248D5
:10186000006800F4003010B10120009001E0002079
:1018700000900098012843D15C48006840F01000B7
:101880005A4908600846006820F0030008600846CE
:10189000006840F0020008605348406852494860C0
:1018A0000846406848600846406840F480604860E8
:1018B0000846406820F47C1048600846406840F4C0
:1018C000E81048600846006840F08070086000BF7B
:1018D0004548006800F000700028F9D04248406890
:1018E00020F00300404948600846406840F002008C
:1018F000486000BF3C48406800F00C000828F9D15F
:101900000CBD10B5FFF792FF10BD10B5364800684A
:1019100040F00100344908600846406834490840F6
:101920003149486008460068324908402E4908603D
:101930000846006820F4802008600846406820F4CB
:10194000FE0048604FF41F008860FFF7DAFF4FF099
:1019500000602949086010BD10B500210020002258
:10196000214B5B6803F00C0121B1042906D0082942
:1019700028D107E0214B224C236027E01F4B204C4D
:10198000236023E0184B5B6803F47010164B5B6810
:1019900003F48032022303EB904022B9194B4343F6
:1019A000174C23600DE0104B5B6803F4003323B148
:1019B000144B4343124C236003E0104B4343104C41
:1019C000236003E00D4B0E4C236000BF00BF064BAD
:1019D0005B68C3F303130C4CE15C094B1B68CB4001
:1019E000074C236010BD00000010024000200240A0
:1019F0000000FFF8FFFFF6FE08ED00E000127A009D
:101A00007800002000093D007C00002010B5002473
:101A100000F02AFA04460220FEF709FE6420FEF7D1
:101A20005DFD4FF4E130FEF786FE204600F020FA1F
:101A300010BD10B5FEF74EFE10BD10B504469CB1AA
:101A4000012C1ED0052C02D0062C1ED103E010A0C4
:101A5000FEF7F5FE19E010A0FEF7F1FE6422062164
:101A6000002000F034F910E00EA0FEF7E8FE64223A
:101A70000621002000F02BF90121002000F0CAF916
:101A800003E00BA0FEF7DBFE00BF00BF10BD0000AF
:101A90006B65790D0A000000302D74696D656F75F6
:101AA000740D0A00302D656E7472790A0000000012
:101AB000302D657869740A00E348006800B920BFDA
:101AC000704770B504460D46002600F0CDF9064675
:101AD000C4EBC400DD4908448078042804DB3046A8
:101AE00000F0C6F9022070BDC4EBC400D749084419
:101AF000C01CC4EBC401D54A114449784554C4EB19
:101B0000C400114608444078401CC4EBC401114491
:101B10004870C4EBC400114608444078042804DB34
:101B20000020C4EBC40111444870C4EBC400C74991
:101B300008448078401CC4EBC401C44A1144887036
:101B4000304600F095F90020CDE770B5C048006838
:101B5000C0490968884242D0BD480088BD4909880B
:101B6000401A85B2BA480068BA490860002434E0D7
:101B7000B94800EBC4004078FF282CD0B64800EBF1
:101B8000C4008088A84209DDB34800EBC400808807
:101B9000401BB14901EBC40188801CE0AE4A12F839
:101BA000341002EBC4025078FFF78BFFAA4800EB19
:101BB000C400807800F0800040B1A74800EBC4006A
:101BC000C088A54901EBC401888004E0FF20A24938
:101BD00001EBC4014870601CC4B2082CC8DB70BDA6
:101BE00070B5FFF7B2FFFFF724FF002408E0C4EB55
:101BF000C40096490844807800B103E0601CC4B278
:101C0000032CF4DB00BF032C47DA002600F02CF98C
:101C10000646C4EBC4008D4908448078401EC4EBDE
:101C2000C4018A4A11448870C4EBC40011460844B8
:101C3000C01CC4EBC401515C455CC4EBC40011463C
:101C4000085C401CC4EBC4015054C4EBC4001146F2
:101C5000085C042803DB0020C4EBC4015054304668
:101C600000F006F97D4850F82410284688477C4843
:101C70000078012810D1002079490870774850F881
:101C80002410012088470020764909688847754854
:101C90000068724941F8240001E0FFF70DFF70BDB4
:101CA00010B5002405E000212046FFF70AFF601C64
:101CB000C4B2032CF7DB002406E0FF20664901EBE9
:101CC000C4014870601CC4B2082CF6DB10BD2DE9BD
:101CD000F04105460E4617464FF0000800F0C4F8E4
:101CE0008046002423E05C4800EBC4004078A84212
:101CF00005D1594810F83400B04200D119E05648D7
:101D000000EBC4004078FF280FD1534800F834603E
:101D100000EBC4008780504800EBC40045700020F1
:101D20004D4901EBC401887003E0601CC4B2082C6B
:101D3000D9DB00BF404600F09BF8BDE8F0812DE9FB
:101D4000F04105460E4617464FF0000800F08CF8AB
:101D5000804600242CE0404800EBC4004078A842B4
:101D600005D13D4810F83400B04200D122E03A4895
:101D700000EBC4004078FF2818D1374800F83460E1
:101D800000EBC4008780344800EBC400C7803248B1
:101D900000EBC4004570304800EBC400807840F090
:101DA00080002D4901EBC401887003E0601CC4B2BF
:101DB000082CD0DB00BF404600F05AF8BDE8F081A7
:101DC0002DE9F04105460E46002700F04DF8074684
:101DD000002417E0204800EBC4004078A8420FD14F
:101DE0001D4810F83400B0420AD1FF201A4901EB17
:101DF000C40148700020184901EBC401887003E059
:101E0000601CC4B2082CE5DB00BF384600F030F897
:101E1000BDE8F081012907D1012282400A4B1B68ED
:101E20001A43094B1A6007E031B901228240064B80
:101E30001B689343044A136070470121084A1170DC
:101E40000849086070470000A800002046010020F3
:101E50008C000020A40000205C01002090000020E5
:101E60009C000020A0000020EFF3108072B67047A5
:101E700080F310887047000031490143314A1160F6
:101E8000704770B5002100230F22C4780CB32D4C8D
:101E9000246804F4E064C4F5E064210AC1F1040399
:101EA000CA40447804FA03F18478144021430901BC
:101EB000254C0678A155047804F01F050124AC4098
:101EC00005786D114FF0E02606EB8505C5F8004159
:101ED00009E0047804F01F050124AC401B4D06788E
:101EE000761145F8264070BD194A0A400243154B49
:101EF0001B1F1A60704739B1124A121D1268024343
:101F0000104B1B1D1A6006E00E4A121D1268824318
:101F10000C4B1B1D1A607047042808D14FF0E021BC
:101F2000096941F004014FF0E022116107E04FF030
:101F3000E021096921F004014FF0E02211617047AE
:101F40000000FA050CED00E000E400E080E100E0B4
:101F500080FFFF1FDD48006840F00100DB4908609A
:101F600008464068DA490840D84948600846006891
:101F7000D8490840D54908600846006820F4802008
:101F800008600846406820F4FE0048604FF41F00D7
:101F900088607047CD49096821F48031CB4A1160CF
:101FA0001146096821F480211160B0F5803F03D00B
:101FB000B0F5802F0ED106E0C449096841F48031A4
:101FC000C24A116007E0C149096841F4A021BF4A33
:101FD000116000E000BF00BF704710B5014600224D
:101FE000002300204A11012A02D1B84C236806E0E0
:101FF000022A02D1B54C236A01E0B44C636A01F0B5
:102000001F02012494401C4201D0012000E0002066
:1020100010BD38B5002000900024002500BF3120FD
:10202000FFF7DBFF05460098401C00900098B0F5D4
:10203000A06F01D0002DF2D03120FFF7CEFF08B104
:10204000012400E00024204638BD014600209F4ABC
:10205000106820F0F80040EAC100106070479E4907
:102060000860704702460020984B586820F47C10A6
:1020700042EA01031843954B586070479649086639
:10208000704701460020914A506820F00300084341
:10209000506070478D48406800F00C007047014662
:1020A00000208A4A506820F0F000084350607047D2
:1020B00001460020854A506820F4E06008435060E3
:1020C000704701460020814A506820F4605040EA81
:1020D000C1005060704729B17C4A527A02437B4B61
:1020E0005A7204E0794A527A8243784B5A727047A6
:1020F0007A490860704701460020744A506820F40D
:1021000040400843506070470021754A11706F4A83
:1021100082F82010012802D0042808D103E0012110
:102120006F4A117004E005216D4A117000E000BF94
:1021300000BF70476B49086070476449096A0143F2
:10214000624A11627047674944390860704730B588
:1021500000210022002400235C4D6D6805F00C0175
:1021600021B1042905D0082923D105E05E4D056081
:1021700022E05D4D05601FE0544D6D6805F470125E
:10218000524D6D6805F48034022505EB92421CB96E
:10219000564D554305600BE04C4D6D6815F4003FFE
:1021A00003D0524D5543056002E04F4D5543056045
:1021B00002E04D4D056000BF00BF444D6D6805F065
:1021C000F00109094A4D6B5C0568DD4045603F4DF3
:1021D0006D6805F4E061090A454D6B5C4568DD40BA
:1021E00085603A4D6D6805F46051C90A404D6B5CDD
:1021F0004568DD40C560354D6D6805F44041890B8B
:102200003C4D6B5CC568B5FBF3F5056130BD29B18C
:102210002E4A526902432D4B5A6104E02B4A5269FF
:1022200082432A4B5A61704729B1284A9269024376
:10223000264B9A6104E0254A92698243234B9A61B6
:10224000704729B1214AD2690243204BDA6104E088
:102250001E4AD26982431D4BDA61704729B11B4A7D
:10226000D2680243194BDA6004E0184AD26882430C
:10227000164BDA60704729B1144A12690243134BB6
:102280001A6104E0114A12698243104B1A617047C7
:1022900014494039086070470F49C86470470B49BA
:1022A000C87170470948406A40F080700749486229
:1022B000704701460020054A92680A4201D0012079
:1022C00000E000207047014988727047001002400A
:1022D0000000FFF8FFFFF6FE00004242D800424235
:1022E000201002408004424200127A0000093D00A2
:1022F000AC000020BC00002010B50446FB4884421E
:1023000009D101218803FFF7A9FF00214FF4804084
:10231000FFF7A4FF32E0F648844209D101214804C6
:10232000FFF7A9FF00214FF40030FFF7A4FF25E0DD
:10233000F048844209D101218804FFF79CFF002165
:102340004FF48020FFF797FF18E0EB48844209D153
:102350000121C804FFF78FFF00214FF40020FFF791
:102360008AFF0BE0E548844208D101210805FFF708
:1023700082FF00214FF48010FFF77DFF10BD2DE993
:10238000F04786B005460E460024A24600BFA1468F
:102390000027B08900B100BF2F462C8A4CF6FF7091
:1023A0000440F08804432C82AC894EF6F3100440BC
:1023B000B08831890843718908430443AC81AC8AF1
:1023C0004FF6FF400440B0890443AC8201A8FFF7F8
:1023D000BEFEC648874202D1DDF810A001E0DDF85C
:1023E0000CA0A88910F4004F08D00AEBCA0000EB3B
:1023F0000A1031684900B0FBF1F807E00AEBCA00A7
:1024000000EB0A1031688900B0FBF1F86420B8FBDA
:10241000F0F004012009642101FB1089A88910F45F
:10242000004F08D0322000EBC900B0FBF1F000F003
:102430000700044308E0322000EB09106421B0FBE0
:10244000F1F000F00F0004432C8106B0BDE8F087E6
:102450004FF41651016000218180C18001810C215F
:10246000418100218181704710B502460020108A09
:102470004FF2FF0318400B884C8823438C8823437A
:10248000CC8823431843108210BD00210180418075
:102490008180C180704721B1828942F400528281DB
:1024A00004E082894DF6FF731A4082817047F0B5CF
:1024B00003460024002600250020A1F510676A3F8E
:1024C00000D100BF1846C1F3421401F01F060127D6
:1024D00007FA06F5012C01D10C3004E0022C01D1E1
:1024E000103000E014301AB107682F43076002E093
:1024F0000768AF430760F0BD1AB1838A0B4383823C
:1025000002E0838A8B4383827047028A4FF6F0731E
:102510001A400282028A0A430282704782894FF27D
:10252000FF731A40828182890A438281704721B1F8
:10253000828942F00202828104E082894FF6FD73B3
:102540001A4082817047028A4FF6DF731A40028276
:10255000028A0A430282704721B1028A42F4804211
:10256000028204E0028A4BF6FF731A40028270472F
:10257000C1F308028280704701468888C0F30800D2
:102580007047818941F0010181817047028BD2B28D
:102590000283028B42EA012202837047028B02F41B
:1025A0007F420283028B0A430283704721B1828AF1
:1025B00042F02002828204E0828A4FF6DF731A40E2
:1025C0008282704721B1828A42F01002828204E046
:1025D000828A4FF6EF731A408282704721B1828A55
:1025E00042F00802828204E0828A4FF6F7731A40B2
:1025F0008282704721B1828942F40042828103E0E5
:102600008289C2F30E028281704721B1828A42F42C
:102610000062828204E0828A4FF2FF731A40828253
:102620007047828A4FF6FB731A408282828A0A437D
:102630008282704721B1828A42F00202828204E0E3
:10264000828A4FF6FD731A4082827047024600204C
:10265000B1F5007F00D100BF13880B4201D00120EB
:1026600000E00020704701F40072B2F5007F00D155
:1026700000BFCA430280704770B5024600240023A1
:1026800000250020A1F510666A3E00D100BFC1F30D
:10269000421501F01F03012606FA03F3012D02D1B2
:1026A0009689334006E0022D02D1168A334001E0BC
:1026B000968A33400C12012606FA04F41688344038
:1026C00013B10CB1012000E0002070BD10B5002254
:1026D0000023A1F510646A3C00D100BF0A12012456
:1026E0009440A3B2DC43048010BD000000380140D8
:1026F0000044004000480040004C004000500040B2
:1027000010B500F00BF9001D10BD00BFFD04000066
:102710002DE9F04791460F4680460446002614F8FE
:10272000015B2DB1FFF7ECFF0068405DC007F6D1FB
:102730002B2D02D02D2D18D0641E4A463946204636
:1027400000F0F4F827B13968A14201D1C7F8008040
:102750004FF0020471050BD54042002803DD00F064
:10276000E1F80460A007BDE8F08746F48066E4E77E
:102770000028F8DA00F0D6F804606FF00040F2E7C5
:10278000401ECAB210F8011F8A4202D00029F9D1B6
:102790000020704710B504780CB10A4603E0002011
:1027A00010BDA342FCD012F8013B002BF9D1401C14
:1027B000F1E730B505460B462A4613F8014B12F8EF
:1027C000010B08B1A042F8D01CB1002802D06D1C4A
:1027D000F1E7284630BD10B5431C02E010F8011B9C
:1027E00071B18107FAD14FF0013202C88C1A8C43C3
:1027F00014EAC211F9D0C01A0A0603D0C01E10BDD7
:10280000C01A10BD0A0401D0801E10BD0902FCD000
:10281000401E10BD40EA010370B59B072ED14FF05A
:102820000136042A2AD308C810C99D1B9D43121FD4
:1028300015EAC61517D0D8B2E1B2401A50EA0561C0
:1028400010D198B2A1B2401A50EA05410AD123F042
:102850007F4024F07F41401A50EA052102D1180E32
:10286000A0EB146070BDA342DBD018BA21BA884235
:1028700001D9012070BD4FF0FF3070BD0AB90020B2
:1028800070BD10F8013B11F8014B63B1A3420AD1AE
:10289000521E08D010F8013B11F8014B1BB1A342A6
:1028A00001D1521EEDD1181B70BD01B500F08DF89D
:1028B00001BD01F0FF03114601B543EA032242EADC
:1028C000024200F0C9F801BD4FF0000200B5134606
:1028D00094469646203922BFA0E80C50A0E80C5040
:1028E000B1F12001BFF4F7AF090728BFA0E80C50F1
:1028F00048BF0CC05DF804EB890028BF40F8042BEA
:1029000008BF704748BF20F8022B11F0804F18BF56
:1029100000F8012B704770477047704700487047B8
:10292000BC010020004870479C0100202DE9F05FA9
:10293000824615468B4600270AF10104B946007805
:10294000302801D09DB113E014F8010B012778283D
:1029500003D0582801D045B10AE00DB1102D07D1A0
:10296000002714F8010B102502E0082500E00A25D5
:102970000026B0460EE005FB080005FB06F1012726
:102980001FFA80F801EB1046B6F5803F00D3B94638
:1029900014F8010B294600F083F80028EBDABBF1AC
:1029A000000F05D00FB1641E00E05446CBF8004084
:1029B000B9F1000F06D0FFF7B5FF02210160C81E74
:1029C000BDE8F09F48EA0640FAE7032A40F230806B
:1029D00010F0030C00F0158011F8013BBCF1020F60
:1029E000624498BF11F801CB00F8013B38BF11F8E1
:1029F000013BA2F1040298BF00F801CB38BF00F8F8
:102A0000013B11F0030300F05980083AC0F0088040
:102A100051F8043B083A51F804CBA0E80810F5E758
:102A2000121D5CBF51F8043B40F8043BAFF300803B
:102A3000D20724BF11F8013B11F801CB48BF11F8B0
:102A4000012B24BF00F8013B00F801CB48BF00F880
:102A5000012B70474FF000020429C0F0128010F0E3
:102A6000030C3FF433AFCCF1040CBCF1020F18BFE0
:102A700000F8012BA8BF20F8022BA1EB0C01FFF7F7
:102A800025BF5FEAC17C24BF00F8012B00F8012BB1
:102A900048BF00F8012B7047004870479C01002098
:102AA0003A2800D2303820F02002412A01D3A2F186
:102AB0003700884201D34FF0FF30704710B5203AFD
:102AC000C0F00B80B1E81850203AA0E81850B1E8E7
:102AD0001850A0E81850BFF4F5AF5FEA027C24BF9D
:102AE000B1E81850A0E8185044BF18C918C0BDE894
:102AF00010405FEA827C24BF51F8043B40F8043B5D
:102B000008BF7047D20728BF31F8023B48BF11F811
:102B1000012B28BF20F8023B48BF00F8012B70476B
:102B20004FF0013C50F8042B51F8043B9A4221D15C
:102B3000A2EB0C03934313EACC1317D150F8042BE8
:102B400051F8043B9A4215D1A2EB0C03934313EACC
:102B5000CC130BD150F8042B51F8043B9A4209D105
:102B6000A2EB0C03934313EACC13DBD04FF000002D
:102B7000704700BFD01A01BAB1FA81F101F0180113
:102B800022FA01F0CB40C1F12001DBB2C0B2C01A81
:102B90002CFA01F3D11A914311EAC311E6D170471F
:102BA0007546FFF779FFAE4605006946534620F0AB
:102BB0000700854618B020B5FEF726FEBDE8204088
:102BC0004FF000064FF000074FF000084FF0000BE9
:102BD00021F00701AC46ACE8C009ACE8C009ACE89C
:102BE000C009ACE8C0098D4670470446AFF30080C9
:102BF0002046FDF7EDFA000001491820ABBEFEE7C4
:102C0000260002007047000010B500290AD008789D
:102C1000002807D005487844FFF782FF002801D03C
:102C2000002010BD0248784410BD00002A030000B7
:102C3000220300002D2D2D2D2D2D2D2D2D2D2D2D53
:102C40002D2D2D2D2D2D2D2D2D2D2D2D2D2D2D2DB4
:102C50002D2D2D2D2D2D2D2D2D2D2D2D2D2D2D2DA4
:102C60002D0A66636D642056302E303320207A7230
:102C700070656E670A557365643A0A2020646F5F59
:102C80006D656D5F6D6428307830303134313238A5
:102C9000302C203531322C2031290A20206D656DF1
:102CA00073657428307830303134313238302C202C
:102CB00036352C20353132290A20206D616C6C6F3D
:102CC000632831303234290A202066726565283045
:102CD000783030313431323830290A2D2D2D2D2DD8
:102CE0002D2D2D2D2D2D2D2D2D2D2D2D2D2D2D2D14
:102CF0002D2D2D2D2D2D2D2D2D2D2D2D2D2D2D2D04
:102D00002D2D2D2D2D2D2D2D0A000000766F69649F
:102D1000206F735F706F7765725F7461736B5F7341
:102D2000746174652875696E74385F74207461739A
:102D30006B5F69642C2075696E74385F74207374DE
:102D40006174652900000000696E7420636D70284D
:102D5000766F6964202A61646472312C20766F6911
:102D600064202A61646472322C20696E7420656C60
:102D7000656D5F636E742C20696E7420656C656D83
:102D80005F73697A65290000766F6964206D642835
:102D9000696E7420616464722C20696E7420656CA5
:102DA000656D5F636E742C20696E7420656C656D53
:102DB0005F73697A6529000075696E74385F7420E5
:102DC0006F735F706F73745F6D6573736167652890
:102DD00075696E74385F74207461736B5F69642CFD
:102DE0002075696E74385F7420736967290000006C
:102DF000766F6964206F735F74696D65725F646577
:102E00006C2875696E74385F74207461736B5F69C8
:102E1000642C2075696E74385F74207369672900AB
:102E2000766F6964202A6D656D63707928766F69A5
:102E300064202A73312C20636F6E737420766F695F
:102E400064202A73322C2073697A655F74206E299E
:102E500000000000766F6964206D656D73657428ED
:102E6000766F6964202A732C20696E7420632C208D
:102E700073697A655F74206E29000000766F69645B
:102E8000206F735F72656C6F61645F74696D6572EA
:102E90005F7365742875696E74385F74207461732C
:102EA0006B5F69642C2075696E74385F7420736978
:102EB000672C2075696E7431365F742074696D6596
:102EC0006F75742900000000766F6964206F735F6E
:102ED00074696D65725F7365742875696E74385FA7
:102EE00074207461736B5F69642C2075696E74382B
:102EF0005F74207369672C2075696E7431365F7456
:102F00002074696D656F75742900000068656C70C8
:102F10000000000061646472000000006C73000037
:102F20005030000800000020C00000006C010008C4
:102F300010310008C0000020400700008801000890
:102F40001001000043000000F8FFFFFF0040404078
:102F5000404040404040414141414140404040406C
:102F60004040404040404040404040404005020218
:102F700002020202020202020202020202202020D7
:102F80002020202020202002020202020202909033
:102F90009090909010101010101010101010101031
:102FA0001010101010101010020202020202888885
:102FB0008888888808080808080808080808080891
:102FC0000808080808080808020202024000000079
:102FD00000000000000000000000000000000000F1
:102FE00000000000000000000000000000000000E1
:102FF00000000000000000000000000000000000D1
:1030000000000000000000000000000000000000C0
:1030100000000000000000000000000000000000B0
:1030200000000000000000000000000000000000A0
:103030000000000000000000000000000000000090
:103040000000000000000000000000000000000080
:103050000000000000000000000000000000000070
:10306000000000001C2F000800000000142F0008C2
:10307000000000000C2F000800000000882D000850
:10308000410D0008482D00084F0E0008542E00087E
:10309000B3280008202E0008AB280008B82D00082F
:1030A000C31A0008C82E0008CF1C00087C2E000898
:1030B0003F1D0008F02D0008C11D00080C2D000860
:1030C000151E00080C00000000A24A0400000000C9
:1030D00000000000010203040607080900000000C8
:1030E0003B1A000841020008FB0200080000000033
:1030F00000000000000000000000000000000000D0
:103100000102030401020304060708090204060879
:0400000508000131BD
:00000001FF
